:020000040800F2
:1000000058040020AD010008DF0D0008E90C0008CD
:10001000DD0D0008B9020008031000080000000010
:10002000000000000000000000000000030E0008B7
:10003000BB02000800000000010E0008050E0008C9
:10004000C7010008C7010008C7010008C701000870
:10005000C7010008C7010008C7010008BD02000869
:10006000C7010008C7010008C7010008C701000850
:10007000C7010008C7010008C7010008C701000840
:10008000C7010008C7010008C70100080000000000
:10009000000000000000000000000000C701000890
:1000A000C7010008C7010008C7010008C701000810
:1000B000C7010008C7010008C7010008C701000800
:1000C000C7010008C7010008C7010008C7010008F0
:1000D000C7010008C7010008C701000800000000B0
:1000E000C7010008C7010008C701000800000000A0
:1000F000000000000000000000000000C701000830
:1001000000000000C7010008C7010008C70100087F
:1001100000000000000000000000000000000000DF
:10012000C7010008C7010008C7010008C70100088F
:10013000C7010008000000000000000000000000EF
:10014000000000000000000000000000C7010008DF
:10015000C7010008C7010008C7010008C70100085F
:10016000C7010008C70100080000000000000000EF
:10017000000000000000000000000000000000007F
:1001800000000000C701000800000000000000009F
:10019000C7010008C7010008DFF80CD000F07AF8AA
:1001A00000480047251000085804002006488047F2
:1001B00006480047FEE7FEE7FEE7FEE7FEE7FEE74C
:1001C000FEE7FEE7FEE7FEE7790E0008990100086A
:1001D0002DE9F05F0546002092469B46884606467C
:1001E000814640241BE0284641464746224600F00F
:1001F00041F853465A46C01A914110D31146184649
:10020000224600F028F82D1A67EB01084F462246D7
:100210000120002100F01FF817EB00094E41201EBD
:10022000A4F10104DFDC484631462A464346BDE8D6
:10023000F09FD2B201E000F8012B491EFBD27047BB
:100240000022F6E710B513460A4604461946FFF7A2
:10025000F0FF204610BD202A04DB203A00FA02F10C
:10026000002070479140C2F1200320FA03F31943A4
:1002700090407047202A04DB203A21FA02F0002146
:10028000704721FA02F3D040C2F1200291400843A6
:1002900019467047064C074D06E0E06840F0010340
:1002A00094E8070098471034AC42F6D3FFF778FF84
:1002B000EC1000080C110008FEE77047022000F067
:1002C0001DB8000070B5044600F0F6F80546601C45
:1002D00002D004480078044400F0EEF8401BA0422D
:1002E000FAD370BD0C000020022803D1010202489D
:1002F00000F0D9B87047000000080240044910B56A
:100300000A68024202D00860FFF7EEFF10BD00004D
:10031000143C01402DE9F84FDFF860B100224FF0A6
:1003200001084FF0030A4FF00F090BF1040E00BF54
:100330000B6808FA02F42340A3426ED14D68022DE7
:1003400001D0122D0ED1D50800EB850CDCF8205021
:100350005607F70E09FA07F6B5430E69BE402E435D
:10036000CCF82060066855000F790AFA05FC07F002
:10037000030726EA0C06AF40374307604E68012E9C
:1003800005D0022E03D0112E01D0122E0ED1866878
:10039000CF6826EA0C06AF40374387604668A6431D
:1003A0000C79C4F30014944034434460C6688C68EC
:1003B00026EA0C06AC403443C4604C68E40056D5D1
:1003C0002F4C256845F480452560246822F00305FC
:1003D00004F4804400942B4C2E19D6F80848950755
:1003E0002F0F09FA07F5AC43274DA84201D100258C
:1003F00015E0264DA84201D1012510E0244DA84268
:1004000001D102250BE0234DA84201D1032506E0CE
:10041000214DA84202D1042501E028E00725BD4076
:100420002543C6F80858DBF800405D464E689C43FB
:10043000F60300D51C432C60DEF8004075464E687C
:100440009C43B60300D51C432C600C4D08352C682A
:100450004E689C43F60200D51C432C60074D0C35BA
:100460002C684E689C43B60200D51C432C60521C7D
:10047000102AFFF45DAFBDE8F88F0000003C01409A
:1004800044380240003001400000024000040240B5
:1004900000080240000C02400010024000690840C1
:1004A00000D00120704742694A40426170470AB15A
:1004B000816170470904FBE70148806870470000CC
:1004C0000C00002002488168027811448160704766
:1004D0000C0000200B4810B5016841F40071016068
:1004E000016841F480610160016841F4807101603C
:1004F000032000F06DF8002000F006F800F024F86A
:10050000002010BD003C024070B50D4D04464FF474
:100510007A712878B1FBF0F00A490968B1FBF0F074
:1005200000F0C0FA48B9102C07D200222146501E14
:1005300000F02EF800206C6070BD012070BD00003E
:100540000C000020180000200A4808B5016841F49A
:1005500080410160006800F4804000900548001F61
:10056000016841F080510160006800F08050009007
:1005700008BD00004438024000F01F0201219140F4
:100580004009800000F1E020C0F800117047000031
:10059000F0B40E4B1B680C46C3F30223C3F10705EE
:1005A000042D00D90425191D072901D2002300E0DC
:1005B000DB1E012606FA05F1491E214099409E40A6
:1005C000761E16403143F0BC00F00ABC0CED00E092
:1005D000064900F0070208684FF6FF03184040EA9A
:1005E0000220034A10430860704700000CED00E051
:1005F0000000FA052DE9F0470E46050065D0DFF84A
:100600001481D8F80000F7B200F00F00B04207D212
:1006100088F80070D8F8000000F00F00B04254D104
:1006200028683D4C810712D5400703D5206840F467
:10063000E05020602878000703D5206840F460402F
:1006400020602068A96820F0F00008432060287826
:10065000C0072DD0304968680839012812D0022817
:1006600013D0032811D00968890700292DDA2168E1
:1006700021F0030101432160FFF71EFF814641F293
:10068000883A0EE009688903EFE709688901ECE719
:10069000FFF712FFA0EB0901514502D90320BDE885
:1006A000F0872068696800F00C00B0EB810FEFD193
:1006B000D8F80010404601F00F01B14207D9077089
:1006C000006800F00F00B04201D00120E7E7287871
:1006D000400705D52068E96820F4E0500843206011
:1006E0002878000706D52068296920F4604040EA90
:1006F000C100206000F016F82168084AC1F3031118
:10070000515CC840064908600020FFF7FDFE00204C
:10071000C5E70000003C024008380240DC10000839
:1007200018000020154810B5006810F00C0214489D
:1007300013D01449042A0FD0082A0ED10F4C241FBD
:100740002268236802F03F025B0207D52068C0F3ED
:100750008810A0FB010106E0084610BD2168C1F326
:100760008811A1FB00010023FFF732FD2168C1F3CE
:100770000141491C4900B0FBF1F010BD08380240AE
:100780000024F40040787D012DE9F84F050076D073
:100790002878DFF8F8B2BE4CC00749D0DBF800106B
:1007A0005846C1F38101012908D00068C0F38100D7
:1007B00002280AD1201D0068400206D52068800367
:1007C00036D568680028E2D032E06868B0F5803F2E
:1007D00010D0B0F5A02F206810D020F48030206019
:1007E000206820F4802020606868A0B1FFF764FED4
:1007F00006460CE0206840F48030F4E740F48020A6
:100800002060F7E7FFF758FE801B642873D8206844
:100810008003F7D50CE0FFF74FFE064605E000BF6A
:10082000FFF74AFE801B6428F0D820688003F7D4C5
:100830002878DFF8608280074FF000093ED5DBF8AA
:100840000010584611F00C0F09D00068C0F3810069
:1008500002280BD18D48001F0068400206D4206892
:10086000800715D5E868012809D111E0E868B8B11A
:100870000120C8F80000FFF71FFE064605E002E170
:10088000FFF71AFE801B0228C0D820688007F7D522
:100890002068296920F0F80040EAC10020600DE0DE
:1008A000C8F80090FFF708FE064604E0FFF704FED4
:1008B000801B02281FD820688007F7D428780007FB
:1008C00022D5724E744869696C3671B1012101609C
:1008D000FFF7F2FD074604E0FFF7EEFDC01B02281C
:1008E00009D830688007F7D50EE0C0F80090FFF710
:1008F000E3FD074605E083E0FFF7DEFDC01B0228AD
:100900007ED830688007F7D42878400768D5DFF8AC
:100910007CA100270AF1380ADAF80000C0000BD4E5
:10092000DAF8001041F08051CAF80010DAF800003F
:10093000012700F080500090584E3068C00510D458
:10094000306840F480703060FFF7B6FD009005E03D
:10095000FFF7B2FD0099401A022851D83068C0054F
:10096000F6D54A4EA868683601280FD005283068A9
:1009700010D020F001003060306820F004003060BA
:10098000A868B8B1FFF798FD00900FE0306840F01C
:100990000100F4E740F004003060F7E7FFF78CFD5A
:1009A0000099411A41F28830814264D8306880074A
:1009B000F4D50EE0FFF780FD009007E0FFF77CFD27
:1009C0000099411A41F28830814254D8306880073A
:1009D000F4D42FB1DAF8001021F08051CAF80010D9
:1009E000A869C0B3DBF80010C1F3810102294AD025
:1009F0000228484607D0C8F86000FFF75DFD00E018
:100A000039E005463AE04746C8F86000FFF754FD74
:100A1000064604E0FFF750FD801B02282BD8206813
:100A20008001F7D4D5E907010843A96A1C4A49089F
:100A300002EB01416A6A41EA8211084395F82C10E1
:100A400040EA01611148001F016001203866FFF78C
:100A500033FD054605E014E0FFF72EFD401B02289C
:100A600009D820688001F7D50BE000BFFFF724FD0F
:100A7000401B022802D90320BDE8F88F20688001BE
:100A8000F4D40020F8E70120F6E70000083802401F
:100A90000038024000004742800E4742007000408C
:100AA0000000FFFF10B5401EB0F1807F01D3012090
:100AB00010BD4FF0E02460610F21601700F090F945
:100AC0000020A06107202061002010BD30B590F803
:100AD0003820012A20D0012280F83820022380F813
:100AE000393003685C6824F070045C6003685C68FB
:100AF0000D682C435C6003689C6824F080049C6053
:100B000003689C6849680C439C6080F83920002188
:100B100080F83810084630BD022030BD0168CA6830
:100B200042F00102CA600068016841F00101016001
:100B3000002070472DE9F041044690F838000D463A
:100B400001283DD0012684F83860022084F839005D
:100B5000AAB3042A46D02068082A55D0D5E9002730
:100B6000E968036A23F480530362D0F81CC0036A67
:100B70002CF4407C4CEA07274FF6FF7C27F47047A3
:100B80000CEA013139434FF4204723F4204307EAAC
:100B900002321A43C16102622068C16921F44061D6
:100BA000C1612068C169AA6841EA0221C0F81C102D
:100BB00084F83960002084F83800BDE8F08101E055
:100BC0000220FAE7D5E90012EB68206800F0C6F9C8
:100BD0002068816921F00C01816120688169AA681F
:100BE00011430FE0D5E90012EB68206800F0EEF940
:100BF0002068816921F44061816120688169AA6867
:100C000041EA02218161D3E7D5E9002C2F7B016AFB
:100C100021F480710162C169036A21F0030141EA94
:100C20000C0121F0F00C39074FF420674CEA1161F8
:100C300023F4206307EA02221A43C161026220689A
:100C4000C16921F00C01C1612068C169AA68114322
:100C5000ACE710B5040003D094F8390010B107E0F8
:100C6000012010BD002084F83800204600F00CF868
:100C7000022084F83900211D206800F027F90120A6
:100C800084F83900002010BD10B586B00446142148
:100C90006846FFF7D5FA2068B0F1804F1ED11048A2
:100CA0000021026842F001020260006800F00100C9
:100CB00005900B481038026842F00102026000689B
:100CC000022200F00100059001200090CDE90121F1
:100CD000CDE9031069460348FFF71CFB06B010BDC1
:100CE0004038024000000240FEE7000070B586B0C8
:100CF00014216846FFF7A4FA1E480024016841F059
:100D000001010160016801F001010591016841F0F4
:100D1000040101600068184E00F004004FF44075B3
:100D20000590224629463046FFF7C1FB022000907D
:100D30001248CDE9010469461148FFF7EBFA40205B
:100D4000CDE90004694630460294FFF7E3FA01203A
:100D50000095CDE90104694630460394FFF7DAFABD
:100D6000002211460720FFF713FC0720FFF704FCC1
:100D700006B070BD3038024000080240000011107B
:100D80000000024010B586B0002413480594049476
:100D90000094019402944FF08041039401604FF459
:100DA0007A51C0E9011441F28831C0E90314FFF718
:100DB00050FF049404A908480594FFF787FE01201A
:100DC000CDE9004002940022694603480394FFF7EE
:100DD000B1FE06B010BD00001C000020FEE7704709
:100DE0000907090E002806DA00F00F0000F1E020E4
:100DF00080F8141D704700F1E02080F8001470475F
:100E000070477047FFF75EBB10B592B0302168465F
:100E1000FFF716FA14210CA8FFF712FA1448002461
:100E2000016841F080510160006800F0805011902D
:100E30001048016841F4404101600068069400F4E4
:100E40004040119002200090012003901020049057
:100E50006846FFF799FC0F20CDE90C040E940F941F
:100E600000210CA81094FFF7C5FB12B010BD0000C4
:100E700040380240007000401048016841F47001A1
:100E800001600F48016841F0010101600C4A002136
:100E90000832116002680B4B1A400260031D0A4AB7
:100EA0001A60026822F48022026005480C3001605A
:100EB00002495806803908607047000088ED00E05C
:100EC00000380240FFFFF6FE10300024F0B5026843
:100ED0001B4B1C4C9F031C4D1C4E984207D0B84224
:100EE00005D0A04203D0A84201D0B04204D122F0E4
:100EF000700C4A6842EA0C02984210D0B8420ED0F8
:100F0000A0420CD0A8420AD0B04208D0104CA04257
:100F100005D0104CA04202D00F4CA04203D122F4C5
:100F20004074CA68224302608A68C2620A688262A8
:100F3000984201D10969016301214161F0BD0000BE
:100F4000000001400004004000080040000C004088
:100F500000400140004401400048014070B5046A6F
:100F600024F0010404628469056A134EB0420ED075
:100F7000B0F1804F0BD0114EB04208D0104EB042AD
:100F800005D0104EB04202D00F4EB04203D124F033
:100F90000304144303E024F0030242F001041A079F
:100FA00024F0F00444EA126225F00A0301F00A0179
:100FB00019438261016270BD0000014000040040DD
:100FC00000080040000C00400040014030B5046AB9
:100FD00024F0100404628469056A24F4407444EA2D
:100FE000022222F470444FF6FF7202EA03322243D7
:100FF000A02425F0A00304EA0111194382610162D3
:1010000030BDFEE702E008C8121F08C1002AFAD16D
:1010100070477047002001E001C1121F002AFBD178
:1010200070470000FFF756FAFFF7EEFEFFF75EFE8F
:10103000FFF7A8FE264C274D4FF480774FF4007839
:10104000002211460720FFF7A3FA0720FFF794FAC2
:101050003220FFF737F9012239462846FFF727FAF1
:101060000A20FFF72FF9002239462846FFF71FFA1A
:1010700040212846FFF712FA20700028F8D0FFF729
:101080001BFA064640212846FFF708FA207001287F
:10109000F8D0FFF711FA801B606002280AD2002006
:1010A000A060012241462846FFF701FA0A48FFF7EF
:1010B00035FDC5E708480068406A40F6B831A060D1
:1010C0008842BDDD002241462846FFF7F0F9B7E728
:1010D00000000020000802401C000020000000006A
:1010E0000000000001020304060708090C110008B3
:1010F000000000201C000000041000082811000857
:101100001C0000203C040000141000080000000037
:1011100001000000000000000100000010000000BD
:08112000000000000024F400AF
:040000050800019955
:00000001FF
